{
  "_format": "hh-sol-artifact-1",
  "contractName": "Mundo",
  "sourceName": "contracts/Mundo.sol",
  "abi": [
    {
      "inputs": [],
      "stateMutability": "nonpayable",
      "type": "constructor"
    },
    {
      "anonymous": false,
      "inputs": [
        {
          "indexed": false,
          "internalType": "address",
          "name": "buyer",
          "type": "address"
        },
        {
          "indexed": false,
          "internalType": "uint256",
          "name": "orderId",
          "type": "uint256"
        },
        {
          "indexed": false,
          "internalType": "uint256",
          "name": "itemId",
          "type": "uint256"
        }
      ],
      "name": "Buy",
      "type": "event"
    },
    {
      "anonymous": false,
      "inputs": [
        {
          "indexed": false,
          "internalType": "string",
          "name": "name",
          "type": "string"
        },
        {
          "indexed": false,
          "internalType": "uint256",
          "name": "cost",
          "type": "uint256"
        },
        {
          "indexed": false,
          "internalType": "uint256",
          "name": "quantity",
          "type": "uint256"
        }
      ],
      "name": "List",
      "type": "event"
    },
    {
      "inputs": [
        {
          "internalType": "uint256",
          "name": "_id",
          "type": "uint256"
        }
      ],
      "name": "buy",
      "outputs": [],
      "stateMutability": "payable",
      "type": "function"
    },
    {
      "inputs": [
        {
          "internalType": "uint256",
          "name": "itemId",
          "type": "uint256"
        }
      ],
      "name": "getItem",
      "outputs": [
        {
          "components": [
            {
              "internalType": "uint256",
              "name": "id",
              "type": "uint256"
            },
            {
              "internalType": "string",
              "name": "name",
              "type": "string"
            },
            {
              "internalType": "string",
              "name": "category",
              "type": "string"
            },
            {
              "internalType": "string",
              "name": "image",
              "type": "string"
            },
            {
              "internalType": "uint256",
              "name": "cost",
              "type": "uint256"
            },
            {
              "internalType": "uint256",
              "name": "rating",
              "type": "uint256"
            },
            {
              "internalType": "uint256",
              "name": "stock",
              "type": "uint256"
            },
            {
              "internalType": "string",
              "name": "description",
              "type": "string"
            }
          ],
          "internalType": "struct Mundo.Item",
          "name": "",
          "type": "tuple"
        }
      ],
      "stateMutability": "view",
      "type": "function"
    },
    {
      "inputs": [
        {
          "internalType": "uint256",
          "name": "",
          "type": "uint256"
        }
      ],
      "name": "items",
      "outputs": [
        {
          "internalType": "uint256",
          "name": "id",
          "type": "uint256"
        },
        {
          "internalType": "string",
          "name": "name",
          "type": "string"
        },
        {
          "internalType": "string",
          "name": "category",
          "type": "string"
        },
        {
          "internalType": "string",
          "name": "image",
          "type": "string"
        },
        {
          "internalType": "uint256",
          "name": "cost",
          "type": "uint256"
        },
        {
          "internalType": "uint256",
          "name": "rating",
          "type": "uint256"
        },
        {
          "internalType": "uint256",
          "name": "stock",
          "type": "uint256"
        },
        {
          "internalType": "string",
          "name": "description",
          "type": "string"
        }
      ],
      "stateMutability": "view",
      "type": "function"
    },
    {
      "inputs": [
        {
          "internalType": "uint256",
          "name": "_id",
          "type": "uint256"
        },
        {
          "internalType": "string",
          "name": "_name",
          "type": "string"
        },
        {
          "internalType": "string",
          "name": "_category",
          "type": "string"
        },
        {
          "internalType": "string",
          "name": "_image",
          "type": "string"
        },
        {
          "internalType": "uint256",
          "name": "_cost",
          "type": "uint256"
        },
        {
          "internalType": "uint256",
          "name": "_rating",
          "type": "uint256"
        },
        {
          "internalType": "uint256",
          "name": "_stock",
          "type": "uint256"
        },
        {
          "internalType": "string",
          "name": "_description",
          "type": "string"
        }
      ],
      "name": "list",
      "outputs": [],
      "stateMutability": "nonpayable",
      "type": "function"
    },
    {
      "inputs": [
        {
          "internalType": "address",
          "name": "",
          "type": "address"
        }
      ],
      "name": "orderCount",
      "outputs": [
        {
          "internalType": "uint256",
          "name": "",
          "type": "uint256"
        }
      ],
      "stateMutability": "view",
      "type": "function"
    },
    {
      "inputs": [
        {
          "internalType": "address",
          "name": "",
          "type": "address"
        },
        {
          "internalType": "uint256",
          "name": "",
          "type": "uint256"
        }
      ],
      "name": "orders",
      "outputs": [
        {
          "internalType": "uint256",
          "name": "time",
          "type": "uint256"
        },
        {
          "components": [
            {
              "internalType": "uint256",
              "name": "id",
              "type": "uint256"
            },
            {
              "internalType": "string",
              "name": "name",
              "type": "string"
            },
            {
              "internalType": "string",
              "name": "category",
              "type": "string"
            },
            {
              "internalType": "string",
              "name": "image",
              "type": "string"
            },
            {
              "internalType": "uint256",
              "name": "cost",
              "type": "uint256"
            },
            {
              "internalType": "uint256",
              "name": "rating",
              "type": "uint256"
            },
            {
              "internalType": "uint256",
              "name": "stock",
              "type": "uint256"
            },
            {
              "internalType": "string",
              "name": "description",
              "type": "string"
            }
          ],
          "internalType": "struct Mundo.Item",
          "name": "item",
          "type": "tuple"
        }
      ],
      "stateMutability": "view",
      "type": "function"
    },
    {
      "inputs": [],
      "name": "owner",
      "outputs": [
        {
          "internalType": "address",
          "name": "",
          "type": "address"
        }
      ],
      "stateMutability": "view",
      "type": "function"
    },
    {
      "inputs": [],
      "name": "withdraw",
      "outputs": [],
      "stateMutability": "nonpayable",
      "type": "function"
    }
  ],
  "bytecode": "0x608060405234801561001057600080fd5b50336000806101000a81548173ffffffffffffffffffffffffffffffffffffffff021916908373ffffffffffffffffffffffffffffffffffffffff160217905550611b01806100606000396000f3fe60806040526004361061007b5760003560e01c80638da5cb5b1161004e5780638da5cb5b1461014f578063bfb231d21461017a578063d96a094a146101be578063f752055e146101da5761007b565b80633129e773146100805780633ccfd60b146100bd578063713d856b146100d4578063793b8c6d14610111575b600080fd5b34801561008c57600080fd5b506100a760048036038101906100a291906112b9565b610203565b6040516100b49190611453565b60405180910390f35b3480156100c957600080fd5b506100d26104a1565b005b3480156100e057600080fd5b506100fb60048036038101906100f691906114d3565b610593565b604051610108919061150f565b60405180910390f35b34801561011d57600080fd5b506101386004803603810190610133919061152a565b6105ab565b60405161014692919061156a565b60405180910390f35b34801561015b57600080fd5b50610164610857565b60405161017191906115a9565b60405180910390f35b34801561018657600080fd5b506101a1600480360381019061019c91906112b9565b61087b565b6040516101b598979695949392919061160e565b60405180910390f35b6101d860048036038101906101d391906112b9565b610ae3565b005b3480156101e657600080fd5b5061020160048036038101906101fc91906117dd565b610ff8565b005b61020b611187565b60016000838152602001908152602001600020604051806101000160405290816000820154815260200160018201805461024490611932565b80601f016020809104026020016040519081016040528092919081815260200182805461027090611932565b80156102bd5780601f10610292576101008083540402835291602001916102bd565b820191906000526020600020905b8154815290600101906020018083116102a057829003601f168201915b505050505081526020016002820180546102d690611932565b80601f016020809104026020016040519081016040528092919081815260200182805461030290611932565b801561034f5780601f106103245761010080835404028352916020019161034f565b820191906000526020600020905b81548152906001019060200180831161033257829003601f168201915b5050505050815260200160038201805461036890611932565b80601f016020809104026020016040519081016040528092919081815260200182805461039490611932565b80156103e15780601f106103b6576101008083540402835291602001916103e1565b820191906000526020600020905b8154815290600101906020018083116103c457829003601f168201915b5050505050815260200160048201548152602001600582015481526020016006820154815260200160078201805461041890611932565b80601f016020809104026020016040519081016040528092919081815260200182805461044490611932565b80156104915780601f1061046657610100808354040283529160200191610491565b820191906000526020600020905b81548152906001019060200180831161047457829003601f168201915b5050505050815250509050919050565b60008054906101000a900473ffffffffffffffffffffffffffffffffffffffff1673ffffffffffffffffffffffffffffffffffffffff163373ffffffffffffffffffffffffffffffffffffffff16146104f957600080fd5b60008060009054906101000a900473ffffffffffffffffffffffffffffffffffffffff1673ffffffffffffffffffffffffffffffffffffffff164760405161054090611995565b60006040518083038185875af1925050503d806000811461057d576040519150601f19603f3d011682016040523d82523d6000602084013e610582565b606091505b505090508061059057600080fd5b50565b60036020528060005260406000206000915090505481565b6002602052816000526040600020602052806000526040600020600091509150508060000154908060010160405180610100016040529081600082015481526020016001820180546105fc90611932565b80601f016020809104026020016040519081016040528092919081815260200182805461062890611932565b80156106755780601f1061064a57610100808354040283529160200191610675565b820191906000526020600020905b81548152906001019060200180831161065857829003601f168201915b5050505050815260200160028201805461068e90611932565b80601f01602080910402602001604051908101604052809291908181526020018280546106ba90611932565b80156107075780601f106106dc57610100808354040283529160200191610707565b820191906000526020600020905b8154815290600101906020018083116106ea57829003601f168201915b5050505050815260200160038201805461072090611932565b80601f016020809104026020016040519081016040528092919081815260200182805461074c90611932565b80156107995780601f1061076e57610100808354040283529160200191610799565b820191906000526020600020905b81548152906001019060200180831161077c57829003601f168201915b505050505081526020016004820154815260200160058201548152602001600682015481526020016007820180546107d090611932565b80601f01602080910402602001604051908101604052809291908181526020018280546107fc90611932565b80156108495780601f1061081e57610100808354040283529160200191610849565b820191906000526020600020905b81548152906001019060200180831161082c57829003601f168201915b505050505081525050905082565b60008054906101000a900473ffffffffffffffffffffffffffffffffffffffff1681565b60016020528060005260406000206000915090508060000154908060010180546108a490611932565b80601f01602080910402602001604051908101604052809291908181526020018280546108d090611932565b801561091d5780601f106108f25761010080835404028352916020019161091d565b820191906000526020600020905b81548152906001019060200180831161090057829003601f168201915b50505050509080600201805461093290611932565b80601f016020809104026020016040519081016040528092919081815260200182805461095e90611932565b80156109ab5780601f10610980576101008083540402835291602001916109ab565b820191906000526020600020905b81548152906001019060200180831161098e57829003601f168201915b5050505050908060030180546109c090611932565b80601f01602080910402602001604051908101604052809291908181526020018280546109ec90611932565b8015610a395780601f10610a0e57610100808354040283529160200191610a39565b820191906000526020600020905b815481529060010190602001808311610a1c57829003601f168201915b505050505090806004015490806005015490806006015490806007018054610a6090611932565b80601f0160208091040260200160405190810160405280929190818152602001828054610a8c90611932565b8015610ad95780601f10610aae57610100808354040283529160200191610ad9565b820191906000526020600020905b815481529060010190602001808311610abc57829003601f168201915b5050505050905088565b6000600160008381526020019081526020016000206040518061010001604052908160008201548152602001600182018054610b1e90611932565b80601f0160208091040260200160405190810160405280929190818152602001828054610b4a90611932565b8015610b975780601f10610b6c57610100808354040283529160200191610b97565b820191906000526020600020905b815481529060010190602001808311610b7a57829003601f168201915b50505050508152602001600282018054610bb090611932565b80601f0160208091040260200160405190810160405280929190818152602001828054610bdc90611932565b8015610c295780601f10610bfe57610100808354040283529160200191610c29565b820191906000526020600020905b815481529060010190602001808311610c0c57829003601f168201915b50505050508152602001600382018054610c4290611932565b80601f0160208091040260200160405190810160405280929190818152602001828054610c6e90611932565b8015610cbb5780601f10610c9057610100808354040283529160200191610cbb565b820191906000526020600020905b815481529060010190602001808311610c9e57829003601f168201915b50505050508152602001600482015481526020016005820154815260200160068201548152602001600782018054610cf290611932565b80601f0160208091040260200160405190810160405280929190818152602001828054610d1e90611932565b8015610d6b5780601f10610d4057610100808354040283529160200191610d6b565b820191906000526020600020905b815481529060010190602001808311610d4e57829003601f168201915b50505050508152505090508060800151341015610d8757600080fd5b60008160c0015111610d9857600080fd5b60006040518060400160405280428152602001838152509050600360003373ffffffffffffffffffffffffffffffffffffffff1673ffffffffffffffffffffffffffffffffffffffff1681526020019081526020016000206000815480929190610e01906119d9565b919050555080600260003373ffffffffffffffffffffffffffffffffffffffff1673ffffffffffffffffffffffffffffffffffffffff1681526020019081526020016000206000600360003373ffffffffffffffffffffffffffffffffffffffff1673ffffffffffffffffffffffffffffffffffffffff16815260200190815260200160002054815260200190815260200160002060008201518160000155602082015181600101600082015181600001556020820151816001019080519060200190610ecf9291906111cc565b506040820151816002019080519060200190610eec9291906111cc565b506060820151816003019080519060200190610f099291906111cc565b506080820151816004015560a0820151816005015560c0820151816006015560e0820151816007019080519060200190610f449291906111cc565b50505090505060018260c00151610f5b9190611a22565b60016000858152602001908152602001600020600601819055507f1cbc5ab135991bd2b6a4b034a04aa2aa086dac1371cb9b16b8b5e2ed6b036bed33600360003373ffffffffffffffffffffffffffffffffffffffff1673ffffffffffffffffffffffffffffffffffffffff168152602001908152602001600020548460000151604051610feb93929190611a56565b60405180910390a1505050565b60008054906101000a900473ffffffffffffffffffffffffffffffffffffffff1673ffffffffffffffffffffffffffffffffffffffff163373ffffffffffffffffffffffffffffffffffffffff161461105057600080fd5b60006040518061010001604052808a815260200189815260200188815260200187815260200186815260200185815260200184815260200183815250905080600160008b81526020019081526020016000206000820151816000015560208201518160010190805190602001906110c89291906111cc565b5060408201518160020190805190602001906110e59291906111cc565b5060608201518160030190805190602001906111029291906111cc565b506080820151816004015560a0820151816005015560c0820151816006015560e082015181600701908051906020019061113d9291906111cc565b509050507ffdbe2a012c10ec01592653978eaa09b5ca60b143a0e617505b2ebcbd911ec5b888868560405161117493929190611a8d565b60405180910390a1505050505050505050565b60405180610100016040528060008152602001606081526020016060815260200160608152602001600081526020016000815260200160008152602001606081525090565b8280546111d890611932565b90600052602060002090601f0160209004810192826111fa5760008555611241565b82601f1061121357805160ff1916838001178555611241565b82800160010185558215611241579182015b82811115611240578251825591602001919060010190611225565b5b50905061124e9190611252565b5090565b5b8082111561126b576000816000905550600101611253565b5090565b6000604051905090565b600080fd5b600080fd5b6000819050919050565b61129681611283565b81146112a157600080fd5b50565b6000813590506112b38161128d565b92915050565b6000602082840312156112cf576112ce611279565b5b60006112dd848285016112a4565b91505092915050565b6112ef81611283565b82525050565b600081519050919050565b600082825260208201905092915050565b60005b8381101561132f578082015181840152602081019050611314565b8381111561133e576000848401525b50505050565b6000601f19601f8301169050919050565b6000611360826112f5565b61136a8185611300565b935061137a818560208601611311565b61138381611344565b840191505092915050565b6000610100830160008301516113a760008601826112e6565b50602083015184820360208601526113bf8282611355565b915050604083015184820360408601526113d98282611355565b915050606083015184820360608601526113f38282611355565b915050608083015161140860808601826112e6565b5060a083015161141b60a08601826112e6565b5060c083015161142e60c08601826112e6565b5060e083015184820360e08601526114468282611355565b9150508091505092915050565b6000602082019050818103600083015261146d818461138e565b905092915050565b600073ffffffffffffffffffffffffffffffffffffffff82169050919050565b60006114a082611475565b9050919050565b6114b081611495565b81146114bb57600080fd5b50565b6000813590506114cd816114a7565b92915050565b6000602082840312156114e9576114e8611279565b5b60006114f7848285016114be565b91505092915050565b61150981611283565b82525050565b60006020820190506115246000830184611500565b92915050565b6000806040838503121561154157611540611279565b5b600061154f858286016114be565b9250506020611560858286016112a4565b9150509250929050565b600060408201905061157f6000830185611500565b8181036020830152611591818461138e565b90509392505050565b6115a381611495565b82525050565b60006020820190506115be600083018461159a565b92915050565b600082825260208201905092915050565b60006115e0826112f5565b6115ea81856115c4565b93506115fa818560208601611311565b61160381611344565b840191505092915050565b600061010082019050611624600083018b611500565b8181036020830152611636818a6115d5565b9050818103604083015261164a81896115d5565b9050818103606083015261165e81886115d5565b905061166d6080830187611500565b61167a60a0830186611500565b61168760c0830185611500565b81810360e083015261169981846115d5565b90509998505050505050505050565b600080fd5b600080fd5b7f4e487b7100000000000000000000000000000000000000000000000000000000600052604160045260246000fd5b6116ea82611344565b810181811067ffffffffffffffff82111715611709576117086116b2565b5b80604052505050565b600061171c61126f565b905061172882826116e1565b919050565b600067ffffffffffffffff821115611748576117476116b2565b5b61175182611344565b9050602081019050919050565b82818337600083830152505050565b600061178061177b8461172d565b611712565b90508281526020810184848401111561179c5761179b6116ad565b5b6117a784828561175e565b509392505050565b600082601f8301126117c4576117c36116a8565b5b81356117d484826020860161176d565b91505092915050565b600080600080600080600080610100898b0312156117fe576117fd611279565b5b600061180c8b828c016112a4565b985050602089013567ffffffffffffffff81111561182d5761182c61127e565b5b6118398b828c016117af565b975050604089013567ffffffffffffffff81111561185a5761185961127e565b5b6118668b828c016117af565b965050606089013567ffffffffffffffff8111156118875761188661127e565b5b6118938b828c016117af565b95505060806118a48b828c016112a4565b94505060a06118b58b828c016112a4565b93505060c06118c68b828c016112a4565b92505060e089013567ffffffffffffffff8111156118e7576118e661127e565b5b6118f38b828c016117af565b9150509295985092959890939650565b7f4e487b7100000000000000000000000000000000000000000000000000000000600052602260045260246000fd5b6000600282049050600182168061194a57607f821691505b6020821081141561195e5761195d611903565b5b50919050565b600081905092915050565b50565b600061197f600083611964565b915061198a8261196f565b600082019050919050565b60006119a082611972565b9150819050919050565b7f4e487b7100000000000000000000000000000000000000000000000000000000600052601160045260246000fd5b60006119e482611283565b91507fffffffffffffffffffffffffffffffffffffffffffffffffffffffffffffffff821415611a1757611a166119aa565b5b600182019050919050565b6000611a2d82611283565b9150611a3883611283565b925082821015611a4b57611a4a6119aa565b5b828203905092915050565b6000606082019050611a6b600083018661159a565b611a786020830185611500565b611a856040830184611500565b949350505050565b60006060820190508181036000830152611aa781866115d5565b9050611ab66020830185611500565b611ac36040830184611500565b94935050505056fea264697066735822122055b8d3a4bf7f9821646c7ae58ed7936c028fb8234c7afc573393c96aac4bce2e64736f6c63430008090033",
  "linkReferences": {},
  "deployedLinkReferences": {}
}